:100000000C942A000C9434000C9434000C943400AA
:100010000C9434000C9434000C9434000C94340090
:100020000C9434000C9434000C9434000C94340080
:100030000C9434000C9434000C9434000C94340070
:100040000C9434000C9434000C9434000C94340060
:100050000C94340011241FBECFE5D8E0DEBFCDBF25
:100060000E9478000C948C000C940000413069F4DC
:10007000E82FF0E0218181E090E002C0880F991F15
:100080006A95E2F7822B81830895E82FF0E02181C1
:1000900081E090E002C0880F991F6A95E2F7809591
:1000A000822381830895E82FF0E0828121E030E00F
:1000B00002C0220F331F6A95E2F72095282322837E
:1000C0000895E82FF0E0828121E030E002C0220FA5
:1000D000331F6A95E2F728272283089580E287BBC1
:1000E00083E48DB91EB80895779BFECF8FB1089534
:1000F00041E064E080E30E94360064E080E30E9417
:1001000053000E946E000E9474008133E1F764E0A6
:0C01100080E30E946100F7CFF894FFCF5D
:00000001FF
